:100000000C9452000C9464000C9464000C946400F2
:100010000C9464000C9464000C9464000C946400D0
:100020000C9464000C9464000C9464000C946400C0
:100030000C9464000C9464000C9464000C946400B0
:100040000C94D8000C9476000C9464000C9464001A
:100050000C9464000C9464000C9464000C94640090
:100060000C9464000C946400010204081020408089
:1000700001020408102001020408102004040404F2
:100080000404040402020202020203030303030342
:1000900000000000250028002B00000000002400C4
:1000A00027002A0011241FBECFEFD8E0DEBFCDBF4E
:1000B00021E0A0E0B1E001C01D92AA30B207E1F753
:1000C0000E94C9000C945D010C9400001AB81CBC7D
:1000D00061E08CE00E948F0061E082E00E948F006E
:1000E0008CB5806C8CBD7894089508951F920F9202
:1000F0000FB60F9211248F939F938EB580930001BA
:1001000080910001873021F48BB194E089278BB96D
:100110009F918F910F900FBE0F901F901895CF93C6
:10012000DF9390E0FC01E859FF4F2491FC01E45873
:10013000FF4F8491882349F190E0880F991FFC01BB
:10014000E656FF4FA591B49180579F4FFC01C59192
:10015000D4919FB7611108C0F8948C9120958223A7
:100160008C93888182230AC0623051F4F8948C9178
:10017000322F309583238C938881822B888304C00F
:10018000F8948C91822B8C939FBFDF91CF9108952F
:1001900008950E9422010E94C8000E946600C0E0EB
:1001A000D0E00E9475002097E1F30E940000F9CF93
:1001B0001F920F920FB60F9211242F933F938F939C
:1001C0009F93AF93BF938091020190910301A091FF
:1001D0000401B09105013091010123E0230F2D3777
:1001E00020F40196A11DB11D05C026E8230F02963B
:1001F000A11DB11D20930101809302019093030181
:10020000A0930401B093050180910601909107012C
:10021000A0910801B09109010196A11DB11D809323
:10022000060190930701A0930801B0930901BF91C3
:10023000AF919F918F913F912F910F900FBE0F9093
:100240001F901895789484B5826084BD84B58160D0
:1002500084BD85B5826085BD85B5816085BDEEE6CE
:10026000F0E0808181608083E1E8F0E010828081AD
:1002700082608083808181608083E0E8F0E080811B
:1002800081608083E1EBF0E0808184608083E0EB3B
:10029000F0E0808181608083EAE7F0E08081846023
:1002A000808380818260808380818160808380817F
:0E02B000806880831092C1000895F894FFCFFB
:00000001FF
