:100000000C9452000C9464000C9464000C946400F2
:100010000C9464000C9464000C9464000C946400D0
:100020000C9464000C9464000C9464000C946400C0
:100030000C9464000C9464000C9464000C946400B0
:100040000C94CB000C9464000C9464000C94640039
:100050000C9464000C9464000C9464000C94640090
:100060000C9464000C946400010204081020408089
:1000700001020408102001020408102004040404F2
:100080000404040402020202020203030303030342
:1000900000000000250028002B00000000002400C4
:1000A00027002A0011241FBECFEFD8E0DEBFCDBF4E
:1000B00021E0A0E0B1E001C01D92A930B207E1F754
:1000C0000E94BC000C9450010C9400001CBC84B134
:1000D0008C6284B98CB581658CBD62E087E00E943A
:1000E00082002A9A08958EBD0DB407FEFDCF0895B3
:1000F0004F9907C04F9BFECF2A9887E00E9473005C
:100100002A9A0895CF93DF9390E0FC01E859FF4FBE
:100110002491FC01E458FF4F8491882349F190E039
:10012000880F991FFC01E656FF4FA591B4918057A7
:100130009F4FFC01C591D4919FB7611108C0F894FD
:100140008C91209582238C93888182230AC062300F
:1001500051F4F8948C91322F309583238C938881BD
:10016000822B888304C0F8948C91822B8C939FBF40
:10017000DF91CF91089508950E9415010E94BB0060
:100180000E946600C0E0D0E00E9478002097E1F372
:100190000E940000F9CF1F920F920FB60F92112408
:1001A0002F933F938F939F93AF93BF9380910101C0
:1001B00090910201A0910301B091040130910001DE
:1001C00023E0230F2D3720F40196A11DB11D05C09A
:1001D00026E8230F0296A11DB11D209300018093F4
:1001E000010190930201A0930301B0930401809157
:1001F000050190910601A0910701B09108010196B7
:10020000A11DB11D8093050190930601A0930701E4
:10021000B0930801BF91AF919F918F913F912F9122
:100220000F900FBE0F901F901895789484B5826040
:1002300084BD84B5816084BD85B5826085BD85B58A
:10024000816085BDEEE6F0E0808181608083E1E839
:10025000F0E0108280818260808380818160808371
:10026000E0E8F0E0808181608083E1EBF0E0808174
:1002700084608083E0EBF0E0808181608083EAE746
:10028000F0E08081846080838081826080838081CF
:10029000816080838081806880831092C10008958E
:0402A000F894FFCF00
:00000001FF
