:100000000C9452000C946F000C946F000C946F00D1
:100010000C946F000C946F000C946F000C946F00A4
:100020000C946F000C946F000C946F000C946F0094
:100030000C946F000C946F000C946F000C946F0084
:100040000C94A6000C946F000C946F000C946F003D
:100050000C946F000C946F000C946F000C946F0064
:100060000C946F000C946F00010204081020408073
:1000700001020408102001020408102004040404F2
:100080000404040402020202020203030303030342
:1000900000000000250028002B00000000002400C4
:1000A00027002A0011241FBECFEFD8E0DEBFCDBF4E
:1000B00011E0A0E0B1E0E2EEF4E002C005900D92A4
:1000C000A630B107D9F721E0A6E0B1E001C01D924A
:1000D000AF30B207E1F70E94CD010C946F020C948F
:1000E000000061E082E00E94930160E08EE00C94E9
:1000F00093018EE00E947601BC01882777FD8095F0
:10010000982F0E940B02609300017093010180936D
:1001100002019093030184E08BB96091000170911A
:10012000010180910201909103010E94DD010E9472
:1001300013011BB8609100017091010180910201CF
:10014000909103010E94DD010C9413011F920F9204
:100150000FB60F9211242F933F938F939F93AF93DA
:10016000BF938091070190910801A0910901B0917E
:100170000A013091060123E0230F2D3720F4019668
:10018000A11DB11D05C026E8230F0296A11DB11DBA
:10019000209306018093070190930801A093090121
:1001A000B0930A0180910B0190910C01A0910D0177
:1001B000B0910E010196A11DB11D80930B0190938A
:1001C0000C01A0930D01B0930E01BF91AF919F91CF
:1001D0008F913F912F910F900FBE0F901F90189508
:1001E0003FB7F89480910B0190910C01A0910D0103
:1001F000B0910E0126B5A89B05C02F3F19F00196BE
:10020000A11DB11D3FBF6627782F892F9A2F620F3E
:10021000711D811D911D42E0660F771F881F991F78
:100220004A95D1F70895CF92DF92EF92FF92CF9344
:10023000DF936B017C010E94F000EB01C114D1043B
:10024000E104F10489F00E94DC010E94F0006C1BC3
:100250007D0B683E734090F381E0C81AD108E10835
:10026000F108C851DC4FEACFDF91CF91FF90EF90BA
:10027000DF90CF900895789484B5826084BD84B572
:10028000816084BD85B5826085BD85B5816085BD91
:10029000EEE6F0E0808181608083E1E8F0E01082AA
:1002A000808182608083808181608083E0E8F0E0EB
:1002B000808181608083E1EBF0E0808184608083D5
:1002C000E0EBF0E0808181608083EAE7F0E080810C
:1002D000846080838081826080838081816080836C
:1002E0008081806880831092C10008958E3008F06C
:1002F0008E5087702091040190E4299F9001112471
:10030000822B80937C0080917A00806480937A00B5
:1003100080917A0086FDFCCF809178002091790051
:1003200090E0922B0895CF93DF9390E0FC01E85981
:10033000FF4F2491FC01E458FF4F8491882349F139
:1003400090E0880F991FFC01E656FF4FA591B491EC
:1003500080579F4FFC01C591D4919FB7611108C090
:10036000F8948C91209582238C93888182230AC0F3
:10037000623051F4F8948C91322F309583238C9312
:100380008881822B888304C0F8948C91822B8C9373
:100390009FBFDF91CF91089508950E943B010E9475
:1003A000CC010E947100C0E0D0E00E94790020974B
:1003B000E1F30E940000F9CF089570D088F09F57B4
:1003C00090F0B92F9927B751A0F0D1F0660F771FA1
:1003D000881F991F1AF0BA95C9F712C0B13081F081
:1003E00077D0B1E0089574C0672F782F8827B85F61
:1003F00039F0B93FCCF3869577956795B395D9F7E2
:100400003EF490958095709561957F4F8F4F9F4FEB
:100410000895E89409C097FB3EF4909580957095F7
:1004200061957F4F8F4F9F4F9923A9F0F92F96E940
:10043000BB279395F695879577956795B795F111B5
:10044000F8CFFAF4BB0F11F460FF1BC06F5F7F4F52
:100450008F4F9F4F16C0882311F096E911C0772364
:1004600021F09EE8872F762F05C0662371F096E86D
:10047000862F70E060E02AF09A95660F771F881F3C
:10048000DAF7880F9695879597F9089557FD905854
:10049000440F551F59F05F3F71F04795880F97FB48
:1004A000991F61F09F3F79F0879508951216130602
:1004B0001406551FF2CF4695F1DF08C01616170631
:1004C0001806991FF1CF8695710561050894089566
:1004D000E894BB2766277727CB0197F90895F8940E
:0204E000FFCF4C
:0604E2008FC2F53D010090
:00000001FF
