:100000000C945E000C9486000C9486000C94860080
:100010000C9486000C9486000C9486000C94860048
:100020000C9486000C9486000C9486000C944D0170
:100030000C9486000C9486000C9486000C94860028
:100040000C94C7050C9486000C94A3040C94D5045E
:100050000C9486000C9486000C9486000C94860008
:100060000C9486000C948600000000080002010039
:100070000003040700000000000000000102040863
:100080001020408001020408102001020408102002
:10009000040404040404040402020202020203032E
:1000A0000303030300000000250028002B000000CC
:1000B0000000240027002A004901050511241FBE65
:1000C000CFEFD8E0DEBFCDBF11E0A0E0B1E0E6E9C0
:1000D000FDE002C005900D92A831B107D9F721E0EB
:1000E000A8E1B1E001C01D92A73EB207E1F710E020
:1000F000CCEBD0E004C02297FE010E94B606C83BBC
:10010000D107C9F70E94B8050C94C9060C940000E9
:1001100060E08EE00E94EF0260E08FE00E94EF025C
:1001200060E080E10E94EF0260E081E10E94EF0266
:10013000609104017091050188E191E00E94A302A1
:100140008FEF84B926E040E052EC61E070E081E49A
:1001500091E00C9441047F928F929F92AF92BF9254
:10016000CF92DF92EF92FF920F931F93CF93DF9383
:100170008132934054F4613273403CF44132534035
:1001800024F4213233400CF454C094EF892E992486
:100190009394C0E0D0E024EB722E8EE00E94A9027E
:1001A0006C018FE00E94A9027C0180E10E94A902FB
:1001B0008C0181E10E94A902E5E6CE16D1040CF083
:1001C000219625E6E216F1040CF02196053611057C
:1001D0000CF02196853691050CF02196CB30D10597
:1001E0001CF1229A1F921F921F927F92A12CB12C78
:1001F0006501EE24EA9413E0F12E00E010E020E027
:1002000030E0A9016AE570E080E090E00E947005AE
:10021000609104017091050188E191E00E94A302C0
:100220000F900F900F900F9081E0881A910809F0BD
:10023000B4CFDF91CF911F910F91FF90EF90DF909E
:10024000CF90BF90AF909F908F907F900895EF9246
:10025000FF920F931F93CF93DF9315B88EE00E9408
:10026000A902EC018FE00E94A9028C0180E10E94AA
:10027000A9027C0181E10E94A9029C01A701B801A9
:10028000CE01DF91CF911F910F91FF90EF900C94D1
:10029000AB0088E191E00C9409021F920F920FB617
:1002A0000F9211242F933F934F935F936F937F93FC
:1002B0008F939F93AF93BF93EF93FF9380911C0114
:1002C00087FF05C010928500109284001AC020910B
:1002D0001C01332727FD309580911B0190E02817E2
:1002E00039077CF480911C01992787FD9095FC01CA
:1002F000EE0FFF1FE80FF91FE35EFE4F808186FDC2
:1003000015C080911C018F5F80931C0120911C01FE
:10031000332727FD309580911B0190E0281739077E
:10032000BCF480911C018C305CF112C080911C01E6
:10033000992787FD9095FC01EE0FFF1FE80FF91F2D
:10034000E35EFE4F808160E08F730E942803D9CF67
:100350008091840090918500049680349C4918F423
:1003600080E49CE905C0809184009091850004960A
:1003700090938900809388008FEF80931C0138C090
:10038000209184003091850080911C01992787FD80
:100390009095FC01EE0FFF1FE80FF91FE35EFE4F83
:1003A00081819281820F931F9093890080938800AE
:1003B00080911C01992787FD9095FC01EE0FFF1F8E
:1003C000E80FF91FE35EFE4F808186FF11C0809128
:1003D0001C01992787FD9095FC01EE0FFF1FE80F88
:1003E000F91FE35EFE4F808161E08F730E94280356
:1003F000FF91EF91BF91AF919F918F917F916F91FD
:100400005F914F913F912F910F900FBE0F901F90D2
:10041000189520911B012C30A0F431E0320F30935D
:100420001B01FC012083822F90E0FC01EE0FFF1FD7
:10043000E80FF91FE35EFE4F88EB9BE09283818318
:1004400008952FEFFC0120830895DF92EF92FF9231
:100450000F931F93CF93DF93EC01D62E7A0189017E
:1004600088818C3008F066C061E08D2D0E94EF021B
:100470008881A82FB0E0FD01EE0FFF1FEA0FFB1FE0
:10048000E35EFE4F2D2D2F739081907C922B9083F5
:1004900060E272E06E197F0977FF02C06D5F7F4FE7
:1004A0007595679575956795698340E659E0401B9A
:1004B000510B57FF02C04D5F5F4F559547955595BE
:1004C00047954A836CE00E945C069CE0899FB001DE
:1004D000112420E030E0A901460F571FFA01EE0F6A
:1004E000FF1FE40FF51FE35EFE4F908196FD16C0DF
:1004F0002F5F3F4F2C30310571F781110FC01092E3
:10050000800082E080938100109285001092840028
:10051000B19A80916F00826080936F00888190E033
:10052000FC01EE0FFF1FE80FF91FE35EFE4F808115
:10053000806480838881DF91CF911F910F91FF901C
:10054000EF90DF90089520E639E040E252E00C940D
:1005500025028E3008F08E5087702091060190E4BD
:10056000299F90011124822B80937C0080917A0036
:10057000806480937A0080917A0086FDFCCF809120
:1005800078002091790090E0922B0895833081F0DB
:1005900028F4813099F08230A1F008958730A9F0D5
:1005A0008830B9F08430D1F4809180008F7D03C011
:1005B000809180008F7780938000089584B58F7735
:1005C00002C084B58F7D84BD08958091B0008F777F
:1005D00003C08091B0008F7D8093B0000895CF93C9
:1005E000DF9390E0FC01E458FF4F2491FC01E057B9
:1005F000FF4F8491882349F190E0880F991FFC01F7
:10060000E255FF4FA591B4918C559F4FFC01C591C8
:10061000D4919FB7611108C0F8948C9120958223E2
:100620008C93888182230AC0623051F4F8948C91B3
:10063000322F309583238C938881822B888304C04A
:10064000F8948C91822B8C939FBFDF91CF9108956A
:100650000F931F93CF93DF931F92CDB7DEB7282F51
:1006600030E0F901E859FF4F8491F901E458FF4F58
:100670001491F901E057FF4F04910023C9F088233A
:1006800021F069830E94C6026981E02FF0E0EE0F3D
:10069000FF1FEC55FF4FA591B4919FB7F8948C9133
:1006A000611103C01095812301C0812B8C939FBFE2
:1006B0000F90DF91CF911F910F910895FC01818DD3
:1006C000228D90E0805C9F4F821B91098F73992748
:1006D0000895FC01918D828D981731F0828DE80F7D
:1006E000F11D858D90E008958FEF9FEF0895FC0137
:1006F000918D828D981761F0828DDF01A80FB11D59
:100700005D968C91928D9F5F9F73928F90E008957C
:100710008FEF9FEF08958BEF94E0892B49F080E0F5
:1007200090E0892B29F00E94FB0481110C940000B9
:100730000895FC01848DDF01A80FB11DA35ABF4F9E
:100740002C91848D90E001968F739927848FA689D0
:10075000B7892C93A089B1898C9180648C93938DF7
:10076000848D981306C00288F389E02D80818F7DE7
:1007700080830895CF93DF93EC01888D8823C9F09F
:10078000EA89FB89808185FD05C0A889B9898C919A
:1007900086FD0FC00FB607FCF5CF808185FFF2CF35
:1007A000A889B9898C9185FFEDCFCE010E9499036C
:1007B000E7CFDF91CF910895CF92DF92FF920F9311
:1007C0001F93CF93DF931F92CDB7DEB76C0181E00B
:1007D000D60158968C9358975B969C915B975C9644
:1007E0008C915C97981307C05096ED91FC915197AE
:1007F000808185FD2EC0F601038D10E00F5F1F4F35
:100800000F731127F02EF601848DF81211C00FB668
:1008100007FCF9CFD6015096ED91FC91519780815C
:1008200085FFF1CFC60169830E9499036981EBCFEF
:10083000838DE80FF11DE35AFF4F6083D6015B966D
:100840000C935B975296ED91FC9153978081806257
:100850000CC0D6015696ED91FC9157976083509647
:10086000ED91FC91519780818064808381E090E0DC
:100870000F90DF91CF911F910F91FF90DF90CF905C
:100880000895BF92CF92DF92EF92FF92CF93DF93C2
:10089000EC016A017B01B22EE889F98982E080834C
:1008A000411581EE580761057105A1F060E079E01E
:1008B0008DE390E0A70196010E946806215031095E
:1008C000410951095695479537952795211580E19E
:1008D000380798F0E889F989108260E874E88EE1B9
:1008E00090E0A70196010E94680621503109410954
:1008F00051095695479537952795EC85FD853083A9
:10090000EE85FF852083188EEC89FD89B082EA8907
:10091000FB89808180618083EA89FB89808188608E
:100920008083EA89FB89808180688083EA89FB89EA
:1009300080818F7D8083DF91CF91FF90EF90DF905A
:10094000CF90BF9008951F920F920FB60F9211246F
:100950002F938F939F93EF93FF93E0915101F09129
:1009600052018081E0915701F091580182FD12C03F
:10097000908180915A018F5F8F7320915B01821764
:1009800051F0E0915A01F0E0EF5BFE4F958F8093BC
:100990005A0101C08081FF91EF919F918F912F911A
:1009A0000F900FBE0F901F9018951F920F920FB6C9
:1009B0000F9211242F933F934F935F936F937F93E5
:1009C0008F939F93AF93BF93EF93FF9381E491E055
:1009D0000E949903FF91EF91BF91AF919F918F91E9
:1009E0007F916F915F914F913F912F910F900FBE2B
:1009F0000F901F90189581E491E00E945E0321E022
:100A0000892B09F420E0822F08951092440110925E
:100A1000430188EE93E0A0E0B0E08093450190931D
:100A20004601A0934701B09348018BE091E0909379
:100A300042018093410185EC90E090934E018093B8
:100A40004D0184EC90E09093500180934F0180EC35
:100A500090E0909352018093510181EC90E090934B
:100A600054018093530182EC90E09093560180935F
:100A7000550186EC90E090935801809357011092B5
:100A80005A0110925B0110925C0110925D01089571
:100A9000CF92DF92EF92FF920F931F93CF93DF934A
:100AA0007C016A01EB0100E010E00C151D0571F0FE
:100AB0006991D701ED91FC910190F081E02DC70182
:100AC0000995892B19F00F5F1F4FEFCFC801DF91F8
:100AD000CF911F910F91FF90EF90DF90CF900895ED
:100AE0004F925F926F927F92AF92BF92CF92DF92BE
:100AF000EF92FF920F931F93CF93DF93CDB7DEB7A3
:100B000029013A01621B730B840B950B29893A89E1
:100B10004B895C892A193B094C095D09298B3A8B61
:100B20004B8B5C8B9B01AC0169897A898B899C8991
:100B30000E944C06E418F50806091709A801970158
:100B40000E948A062A0D3B1D4C1D5D1DCA01B9017C
:100B5000DF91CF911F910F91FF90EF90DF90CF9099
:100B6000BF90AF907F906F905F904F9008950895E1
:100B70000E9411060E94B7050E948800CBE8D3E0CE
:100B80000E9427012097E1F30E948B03F9CF1F9267
:100B90000F920FB60F9211242F933F938F939F9331
:100BA000AF93BF938091DF019091E001A091E101AB
:100BB000B091E2013091DE0123E0230F2D3720F4C4
:100BC0000196A11DB11D05C026E8230F0296A11DA7
:100BD000B11D2093DE018093DF019093E001A0938B
:100BE000E101B093E2018091E3019091E401A091D1
:100BF000E501B091E6010196A11DB11D8093E301CD
:100C00009093E401A093E501B093E601BF91AF9109
:100C10009F918F913F912F910F900FBE0F901F903A
:100C20001895789484B5826084BD84B5816084BD54
:100C300085B5826085BD85B5816085BDEEE6F0E055
:100C4000808181608083E1E8F0E0108280818260B1
:100C50008083808181608083E0E8F0E08081816032
:100C60008083E1EBF0E0808184608083E0EBF0E062
:100C7000808181608083EAE7F0E080818460808306
:100C800080818260808380818160808380818068B0
:100C900080831092C1000895DB018F939F930E947F
:100CA000A906BF91AF91A29F800D911DA39F900DAA
:100CB000B29F900D11240895991B79E004C0991FEB
:100CC000961708F0961B881F7A95C9F780950895A6
:100CD000A1E21A2EAA1BBB1BFD010DC0AA1FBB1F40
:100CE000EE1FFF1FA217B307E407F50720F0A21BB2
:100CF000B30BE40BF50B661F771F881F991F1A941F
:100D000069F760957095809590959B01AC01BD0148
:100D1000CF010895052E97FB1EF400940E94A106B2
:100D200057FD07D00E94680607FC03D04EF40C94D0
:100D3000A10650954095309521953F4F4F4F5F4FFD
:100D4000089590958095709561957F4F8F4F9F4F37
:100D500008950E94BA06A59F900DB49F900DA49F80
:100D6000800D911D11240895EE0FFF1F0590F49141
:100D7000E02D0994A29FB001B39FC001A39F700D05
:100D8000811D1124911DB29F700D811D1124911D93
:060D90000895F894FFCF66
:100D96000100000001000100000000DC0348055EC0
:080DA6000377036903BA03009F
:107800000C94343C0C94513C0C94513C0C94513CE1
:107810000C94513C0C94513C0C94513C0C94513CB4
:107820000C94513C0C94513C0C94513C0C94513CA4
:107830000C94513C0C94513C0C94513C0C94513C94
:107840000C94513C0C94513C0C94513C0C94513C84
:107850000C94513C0C94513C0C94513C0C94513C74
:107860000C94513C0C94513C11241FBECFEFD8E036
:10787000DEBFCDBF11E0A0E0B1E0ECE9FFE702C060
:1078800005900D92A230B107D9F712E0A2E0B1E065
:1078900001C01D92AD30B107E1F70E942D3D0C945F
:1078A000CC3F0C94003C982F959595959595959582
:1078B000905D8F708A307CF0282F295A8091C0000B
:1078C00085FFFCCF9093C6008091C00085FFFCCF60
:1078D0002093C6000895282F205DF0CF982F809127
:1078E000C00085FFFCCF9093C6000895EF92FF92F1
:1078F0000F931F93EE24FF2487018091C00087FD22
:1079000017C00894E11CF11C011D111D81E4E8164B
:1079100082E4F8068FE0080780E0180770F3E09132
:107920000401F091050109958091C00087FFE9CF1E
:107930008091C6001F910F91FF90EF9008950E94D3
:10794000763C982F8091C00085FFFCCF9093C600B5
:1079500091362CF490330CF09053892F089597555D
:10796000892F08951F930E949F3C182F0E949F3CCF
:107970001295107F810F1F9108951F93182F882350
:1079800021F00E94763C1150E1F71F9108951F935A
:10799000182F0E94763C803249F0809103018F5F5E
:1079A000809303018530C1F01F9108958091C0003C
:1079B00085FFFCCF84E18093C6008091C00085FFE5
:1079C000FCCF1093C6008091C00085FFFCCF80E102
:1079D0008093C6001F910895E0910401F091050184
:1079E00009951F9108950E94763C803241F0809164
:1079F00003018F5F80930301853081F008958091AA
:107A0000C00085FFFCCF84E18093C6008091C00058
:107A100085FFFCCF80E18093C6000895E0910401CA
:107A2000F09105010995089540E951E08823A1F0FE
:107A30002D9A28EE33E0FA013197F1F721503040CA
:107A4000D1F72D9828EE33E0FA013197F1F7215064
:107A50003040D1F7815061F708953F924F925F9285
:107A60006F927F928F929F92AF92BF92CF92DF924E
:107A7000EF92FF920F931F93CF93DF93000080E16B
:107A80008093C4001092C50088E18093C10086E015
:107A90008093C2005098589A259A81E00E94143D24
:107AA00024E1F22E9EE1E92E85E9D82E0FE0C02ECA
:107AB00010E1B12EAA24A394B1E49B2EA6E58A2E50
:107AC000F2E57F2EE0E26E2E79E4572E63E5462E36
:107AD00050E5352E0E94763C8033B1F18133B9F107
:107AE000803409F46FC0813409F476C0823409F41B
:107AF00085C0853409F488C0803531F1823521F1A3
:107B0000813511F1853509F485C0863509F48DC0BC
:107B1000843609F496C0843709F403C1853709F423
:107B200072C1863709F466C0809103018F5F80932C
:107B30000301853079F6E0910401F0910501099582
:107B40000E94763C803351F60E94F33CC3CF0E94E2
:107B5000763C803249F78091C00085FFFCCFF092DF
:107B6000C6008091C00085FFFCCF9092C600809136
:107B7000C00085FFFCCF8092C6008091C00085FFC9
:107B8000FCCF7092C6008091C00085FFFCCF609250
:107B9000C6008091C00085FFFCCF5092C600809146
:107BA000C00085FFFCCF4092C6008091C00085FFD9
:107BB000FCCF3092C6008091C00085FFFCCFB09210
:107BC000C60088CF0E94763C863808F4BDCF0E945C
:107BD000763C0E94F33C7ECF0E94763C803809F4CC
:107BE0009CC0813809F40BC1823809F43CC1883942
:107BF00009F48FC080E00E94C73C6CCF84E10E94F2
:107C0000BD3C0E94F33C66CF85E00E94BD3C0E94D3
:107C1000F33C60CF0E94763C809306010E94763C44
:107C2000809307010E94F33C55CF0E94763C80333D
:107C300009F41DC183E00E94BD3C80E00E94C73C66
:107C400049CF0E94763C809309020E94763C809343
:107C5000080280910C028E7F80930C020E94763C79
:107C6000853409F415C18091080290910902892B8D
:107C700089F000E010E00E94763CF801E85FFE4FDA
:107C800080830F5F1F4F80910802909109020817AF
:107C9000190788F30E94763C803209F045CF809125
:107CA0000C0280FF01C16091060170910701660F0F
:107CB000771F7093070160930601A0910802B091AD
:107CC00009021097C9F0E8E0F1E09B01AD014E0F09
:107CD0005F1FF999FECF32BD21BD819180BDFA9A17
:107CE000F99A2F5F3F4FE417F50799F76A0F7B1F4B
:107CF00070930701609306018091C00085FFFCCF5F
:107D0000F092C6008091C00085FFFCCFB092C60003
:107D1000E1CE83E00E94C73CDDCE82E00E94C73CFA
:107D2000D9CE0E94763C809309020E94763C8093D3
:107D300008028091060190910701880F991F909386
:107D40000701809306010E94763C853409F4A6C0A1
:107D500080910C028E7F80930C020E94763C8032D0
:107D600009F0B8CE8091C00085FFFCCFF092C6002C
:107D7000609108027091090261157105B9F140E046
:107D800050E080910C02A82FA170B82FB27011C0E2
:107D9000BB2309F45CC0E0910601F0910701319624
:107DA000F0930701E09306014F5F5F4F46175707B7
:107DB000E8F4AA2369F3F999FECF209106013091E6
:107DC000070132BD21BDF89A90B58091C00085FFB2
:107DD000FCCF9093C6002F5F3F4F30930701209355
:107DE00006014F5F5F4F4617570718F38091C00099
:107DF00085FDE5CE8091C00085FFF8CFE0CE81E023
:107E00000E94C73C67CE0E94763C803209F08CCE3F
:107E10008091C00085FFFCCFF092C6008091C00029
:107E200085FFFCCFE092C6008091C00085FFFCCFAB
:107E3000D092C6008091C00085FFFCCFC092C600E2
:107E40008091C00085FFFCCFB092C60043CEE09188
:107E50000601F091070194918091C00085FFFCCF4D
:107E60009093C6009CCF80E10E94C73C33CE0E9415
:107E7000763C0E94763C182F0E94763C112309F430
:107E800083C0113009F484C08FE00E94C73C22CE29
:107E900080910C02816080930C02E5CE80910C02EF
:107EA000816080930C0259CF809107018823880F4D
:107EB000880B8A2180930B02809106019091070123
:107EC000880F991F90930701809306018091080203
:107ED00080FF09C080910802909109020196909359
:107EE000090280930802F894F999FECF1127E091D6
:107EF0000601F0910701C8E0D1E08091080290915D
:107F00000902103091F40091570001700130D9F34B
:107F100003E000935700E89500915700017001308D
:107F2000D9F301E100935700E89509901990009169
:107F3000570001700130D9F301E000935700E89534
:107F40001395103498F011270091570001700130FB
:107F5000D9F305E000935700E895009157000170B0
:107F60000130D9F301E100935700E895329602976A
:107F700009F0C7CF103011F00296E5CF112480919F
:107F8000C00085FFB9CEBCCE8EE10E94C73CA2CD19
:0C7F900085E90E94C73C9ECDF894FFCF0D
:027F9C00800063
:040000030000780081
:00000001FF
